{
  "_format": "hh-sol-artifact-1",
  "contractName": "myWallet",
  "sourceName": "contracts/myWallet.sol",
  "abi": [
    {
      "inputs": [],
      "stateMutability": "nonpayable",
      "type": "constructor"
    },
    {
      "inputs": [
        {
          "internalType": "string",
          "name": "message",
          "type": "string"
        }
      ],
      "name": "Balance",
      "type": "error"
    },
    {
      "inputs": [
        {
          "internalType": "address",
          "name": "_sender",
          "type": "address"
        }
      ],
      "name": "amountSent",
      "outputs": [
        {
          "internalType": "uint256",
          "name": "",
          "type": "uint256"
        }
      ],
      "stateMutability": "view",
      "type": "function"
    },
    {
      "inputs": [],
      "name": "checkBalance",
      "outputs": [
        {
          "internalType": "uint256",
          "name": "",
          "type": "uint256"
        }
      ],
      "stateMutability": "view",
      "type": "function"
    },
    {
      "inputs": [],
      "name": "deposit",
      "outputs": [],
      "stateMutability": "payable",
      "type": "function"
    },
    {
      "inputs": [],
      "name": "owner",
      "outputs": [
        {
          "internalType": "address",
          "name": "",
          "type": "address"
        }
      ],
      "stateMutability": "view",
      "type": "function"
    },
    {
      "inputs": [
        {
          "internalType": "address payable",
          "name": "_receiver",
          "type": "address"
        },
        {
          "internalType": "uint256",
          "name": "_amount",
          "type": "uint256"
        }
      ],
      "name": "sendEther",
      "outputs": [],
      "stateMutability": "nonpayable",
      "type": "function"
    },
    {
      "inputs": [
        {
          "internalType": "address",
          "name": "",
          "type": "address"
        }
      ],
      "name": "senders",
      "outputs": [
        {
          "internalType": "uint256",
          "name": "",
          "type": "uint256"
        }
      ],
      "stateMutability": "view",
      "type": "function"
    },
    {
      "inputs": [
        {
          "internalType": "uint256",
          "name": "_amount",
          "type": "uint256"
        }
      ],
      "name": "withdraw",
      "outputs": [],
      "stateMutability": "nonpayable",
      "type": "function"
    }
  ],
  "bytecode": "0x608060405234801561001057600080fd5b50336000806101000a81548173ffffffffffffffffffffffffffffffffffffffff021916908373ffffffffffffffffffffffffffffffffffffffff1602179055506109f5806100606000396000f3fe6080604052600436106100705760003560e01c8063982fb9d81161004e578063982fb9d814610106578063c1756a2c14610143578063c71daccb1461016c578063d0e30db01461019757610070565b806322dbfd4b146100755780632e1a7d4d146100b25780638da5cb5b146100db575b600080fd5b34801561008157600080fd5b5061009c60048036038101906100979190610634565b6101a1565b6040516100a9919061067a565b60405180910390f35b3480156100be57600080fd5b506100d960048036038101906100d491906106c1565b610258565b005b3480156100e757600080fd5b506100f0610376565b6040516100fd91906106fd565b60405180910390f35b34801561011257600080fd5b5061012d60048036038101906101289190610634565b61039a565b60405161013a919061067a565b60405180910390f35b34801561014f57600080fd5b5061016a60048036038101906101659190610756565b6103b2565b005b34801561017857600080fd5b50610181610507565b60405161018e919061067a565b60405180910390f35b61019f610568565b005b60008073ffffffffffffffffffffffffffffffffffffffff168273ffffffffffffffffffffffffffffffffffffffff1603610211576040517f08c379a0000000000000000000000000000000000000000000000000000000008152600401610208906107f3565b60405180910390fd5b600160008373ffffffffffffffffffffffffffffffffffffffff1673ffffffffffffffffffffffffffffffffffffffff168152602001908152602001600020549050919050565b60008054906101000a900473ffffffffffffffffffffffffffffffffffffffff1673ffffffffffffffffffffffffffffffffffffffff163373ffffffffffffffffffffffffffffffffffffffff16146102b057600080fd5b6000670de0b6b3a7640000826102c69190610842565b90508047101561030b576040517fdb42f09d000000000000000000000000000000000000000000000000000000008152600401610302906108d0565b60405180910390fd5b60008054906101000a900473ffffffffffffffffffffffffffffffffffffffff1673ffffffffffffffffffffffffffffffffffffffff166108fc829081150290604051600060405180830381858888f19350505050158015610371573d6000803e3d6000fd5b505050565b60008054906101000a900473ffffffffffffffffffffffffffffffffffffffff1681565b60016020528060005260406000206000915090505481565b60008054906101000a900473ffffffffffffffffffffffffffffffffffffffff1673ffffffffffffffffffffffffffffffffffffffff163373ffffffffffffffffffffffffffffffffffffffff161461040a57600080fd5b600073ffffffffffffffffffffffffffffffffffffffff168273ffffffffffffffffffffffffffffffffffffffff1603610479576040517f08c379a00000000000000000000000000000000000000000000000000000000081526004016104709061093c565b60405180910390fd5b804710156104bc576040517fdb42f09d0000000000000000000000000000000000000000000000000000000081526004016104b3906108d0565b60405180910390fd5b8173ffffffffffffffffffffffffffffffffffffffff166108fc829081150290604051600060405180830381858888f19350505050158015610502573d6000803e3d6000fd5b505050565b60008060009054906101000a900473ffffffffffffffffffffffffffffffffffffffff1673ffffffffffffffffffffffffffffffffffffffff163373ffffffffffffffffffffffffffffffffffffffff161461056257600080fd5b47905090565b600034116105795761057861095c565b5b34600160003373ffffffffffffffffffffffffffffffffffffffff1673ffffffffffffffffffffffffffffffffffffffff16815260200190815260200160002060008282546105c8919061098b565b92505081905550565b600080fd5b600073ffffffffffffffffffffffffffffffffffffffff82169050919050565b6000610601826105d6565b9050919050565b610611816105f6565b811461061c57600080fd5b50565b60008135905061062e81610608565b92915050565b60006020828403121561064a576106496105d1565b5b60006106588482850161061f565b91505092915050565b6000819050919050565b61067481610661565b82525050565b600060208201905061068f600083018461066b565b92915050565b61069e81610661565b81146106a957600080fd5b50565b6000813590506106bb81610695565b92915050565b6000602082840312156106d7576106d66105d1565b5b60006106e5848285016106ac565b91505092915050565b6106f7816105f6565b82525050565b600060208201905061071260008301846106ee565b92915050565b6000610723826105d6565b9050919050565b61073381610718565b811461073e57600080fd5b50565b6000813590506107508161072a565b92915050565b6000806040838503121561076d5761076c6105d1565b5b600061077b85828601610741565b925050602061078c858286016106ac565b9150509250929050565b600082825260208201905092915050565b7f446f6e6f7220646f6573206e6f74206578697374000000000000000000000000600082015250565b60006107dd601483610796565b91506107e8826107a7565b602082019050919050565b6000602082019050818103600083015261080c816107d0565b9050919050565b7f4e487b7100000000000000000000000000000000000000000000000000000000600052601160045260246000fd5b600061084d82610661565b915061085883610661565b925082820261086681610661565b9150828204841483151761087d5761087c610813565b5b5092915050565b7f496e73756666696369656e742042616c616e6365000000000000000000000000600082015250565b60006108ba601483610796565b91506108c582610884565b602082019050919050565b600060208201905081810360008301526108e9816108ad565b9050919050565b7f526563656976657220646f6573206e6f74206578697374000000000000000000600082015250565b6000610926601783610796565b9150610931826108f0565b602082019050919050565b6000602082019050818103600083015261095581610919565b9050919050565b7f4e487b7100000000000000000000000000000000000000000000000000000000600052600160045260246000fd5b600061099682610661565b91506109a183610661565b92508282019050808211156109b9576109b8610813565b5b9291505056fea2646970667358221220cc92a82415bf43bac8e9137e9ebe368864baa641e4d0708ff957073f9cfc89f264736f6c63430008110033",
  "linkReferences": {},
  "deployedLinkReferences": {}
}